:100000000C9439010C94D8080C94B1080C9461013B
:100010000C9461010C9461010C9461010C946101D8
:100020000C9461010C9461010C9461010C946101C8
:100030000C9461010C9461010C9461010C946101B8
:100040000C9467080C9461010C9435080C940F080B
:100050000C9461010C9461010C9461010C94610198
:100060000C9461010C946101180B540B540B1D0B83
:10007000540B540B540B540B540B270B2C0B4A0BE7
:10008000360B3B0B400B450B310B220B4F0B5B0B25
:10009000750B750B810B750B750B750B750B750B54
:1000A0008B0B900BAE0B9A0B9F0BA40BA90B950B14
:1000B000860BB30B00000000240027002A0000007C
:1000C0000000250028002B0000000000230026006F
:1000D00029000404040404040404020202020202CB
:1000E00003030303030301020408102040800102FC
:1000F000040810200102040810200000000800027B
:1001000001000003040700000000000000002020A0
:10011000436F64652000202D205374617475732033
:1001200042697473200056616C75652000191218BD
:100130001415BB161117131A4040202008040202A0
:1001400077017E025803120659071408110A841019
:10015000761B661C0D1D5A1E291F702069217222F4
:100160007A236B24732574266C2775287D29712AC0
:10017000792C7B2D7C2E0F3F453016311E322633D5
:1001800025342E3536363D373E384639523A413BD6
:100190004E3C493D4A3E0E401C41324221432344DD
:1001A00024452B463447334843493B4A424B4B4C4A
:1001B0003A4D314E444F4D5015512D521B532C5436
:1001C0003C552A561D57225835591A5A4C5B5D5CCE
:1001D000545D5B5E555F618B0561066204630C6470
:1001E00003650B6683670A680169096A786B076CA7
:1001F000086D106E186F207028713072387340745B
:100200004875507657775F786D60519113926A9375
:1002100064946795F296F197639862995FA012BB18
:100220007C041409110B1F0C270D2F0E7E0F6C116F
:1002300069127D137A146B1574167517721870197C
:10024000711A5A2B4A2F4D79157A387B347C237DCD
:10025000327E217F508048812B82408310843A85F2
:100260003886308728882089188A378C3F8D5E90A1
:10027000FF0811241FBECFEFD8E0DEBFCDBF11E0D5
:10028000A0E0B1E0EEECF7E102C005900D92AA31DA
:10029000B107D9F722E0AAE1B1E001C01D92AC3F5D
:1002A000B207E1F711E0C9E3D1E004C02197FE01F4
:1002B0000E94DA0BC833D107C9F70E942C090C94AD
:1002C000E50B0C9400000F931F93CF93DF938C01E9
:1002D000C0E0D0E0F801EC0FFD1F6491662371F0DF
:1002E000E0915F02F09160020190F081E02D8FE5D6
:1002F00092E00995892B11F02196ECCFCE01DF9188
:10030000CF911F910F910895FC01538D448D252F9E
:1003100030E0842F90E0821B930B541710F0CF969F
:10032000089501970895FC01918D828D981761F0D1
:10033000828DDF01A80FB11D5D968C91928D9F5F1C
:100340009F73928F90E008958FEF9FEF0895FC01C7
:10035000918D828D981731F0828DE80FF11D858D7A
:1003600090E008958FEF9FEF0895FC01918D228D0D
:10037000892F90E0805C9F4F821B91098F73992792
:100380000895FC01848DDF01A80FB11DA35ABF4F52
:100390002C91848D90E001968F739927848FA68984
:1003A000B7892C93A089B1898C9180648C93938DAB
:1003B000848D981306C00288F389E02D80818F7D9B
:1003C00080830895EF92FF920F931F93CF93DF9353
:1003D000EC0181E0888F9B8D8C8D981305C0E88996
:1003E000F989808185FD24C0F62E0B8D10E00F5F0A
:1003F0001F4F0F731127E02E8C8DE8120CC00FB623
:1004000007FCFACFE889F989808185FFF5CFCE0115
:100410000E94C101F1CF8B8DFE01E80FF11DE35A5F
:10042000FF4FF0820B8FEA89FB898081806207C0D1
:10043000EE89FF896083E889F989808180648083FF
:1004400081E090E0DF91CF911F910F91FF90EF90AD
:100450000895CF93DF93EC01888D8823C9F0EA8952
:10046000FB89808185FD05C0A889B9898C9186FDAD
:100470000FC00FB607FCF5CF808185FFF2CFA889AA
:10048000B9898C9185FFEDCFCE010E94C101E7CFE4
:10049000DF91CF9108958FE592E00E94B50121E0B0
:1004A000892B09F420E0822F089580E090E0892BC9
:1004B00029F00E944B0281110C9400000895CF9204
:1004C000DF92EF92FF920F931F93CF93DF936C0114
:1004D0007A018B01C0E0D0E0CE15DF0589F0D801AC
:1004E0006D918D01D601ED91FC910190F081E02D8F
:1004F000C6010995892B11F47E0102C02196ECCF2B
:10050000C701DF91CF911F910F91FF90EF90DF9086
:10051000CF900895089580E090E00895833081F0B1
:1005200028F4813099F08230A1F008958730A9F045
:100530008830B9F08430D1F4809180008F7D03C081
:10054000809180008F7780938000089584B58F77A5
:1005500002C084B58F7D84BD08958091B0008F77EF
:1005600003C08091B0008F7D8093B0000895CF9339
:10057000DF93282F30E0F901E650FF4F8491F90115
:10058000EA51FF4FD491F901EE52FF4FC491CC23B1
:1005900091F081110E948E02EC2FF0E0EE0FFF1F10
:1005A000E853FF4FA591B491EC91ED2381E090E0E9
:1005B00021F480E002C080E090E0DF91CF910895C7
:1005C0001F93CF93DF93282F30E0F901E650FF4FC0
:1005D0008491F901EA51FF4FD491F901EE52FF4F96
:1005E000C491CC23C9F0162F81110E948E02EC2FEA
:1005F000F0E0EE0FFF1FE254FF4FA591B4918FB7CB
:10060000F894111105C09C91ED2FE095E92302C0EB
:10061000EC91ED2BEC938FBFDF91CF911F9108955B
:10062000CF93DF9390E0FC01EA51FF4F2491FC014E
:10063000EE52FF4F8491882361F190E0880F991F5B
:10064000FC01EC54FF4FC591D491FC01E254FF4FE3
:10065000A591B491611109C09FB7F8948881209544
:1006600082238883EC912E230BC0623061F49FB704
:10067000F8943881822F809583238883EC912E2BE8
:100680002C939FBF06C08FB7F894E8812E2B288348
:100690008FBFDF91CF9108953FB7F89480913401D7
:1006A00090913501A0913601B091370126B5A89BF4
:1006B00005C02F3F19F00196A11DB11D3FBFBA2FF4
:1006C000A92F982F8827820F911DA11DB11DBC0154
:1006D000CD0143E0660F771F881F991F4A95D1F718
:1006E00008958F929F92AF92BF92CF92DF92EF9236
:1006F000FF926B017C010E944C034B015C01C11411
:10070000D104E104F104F1F00E944C03DC01CB01BF
:1007100088199909AA09BB09883E9340A105B1052A
:1007200070F321E0C21AD108E108F10888EE880EC2
:1007300083E0981EA11CB11CC114D104E104F10492
:1007400019F7DDCFFF90EF90DF90CF90BF90AF9083
:100750009F908F900895089510922E0110922D0170
:1007600010922C0110922B011092540210925302FD
:1007700010922A011092420210922901089590913C
:100780002E019F5F963008F090E020912D01921786
:1007900051F0E92FF0E0ED5DFE4F808390932E0144
:1007A00081E090E008958CEF9FEF0895CF93DF9361
:1007B000809322018093210110922A01109220013E
:1007C00080912901806C8093290180912C0187FD03
:1007D00004C080912C0180FD2AC0D091390161E0D4
:1007E0008D2F0E94E00261E08D2F0E941003C091C6
:1007F000380161E08C2F0E94E00261E08C2F0E94A2
:10080000100380E190E00197F1F760E08C2F0E94E7
:10081000E00284E790E00197F1F760E08D2F0E94FD
:10082000E00262E08C2FDF91CF910C941003809155
:100830002B0180931F018091290180618093290100
:10084000CCCF90912D0180912E019817A9F1809124
:100850002C01816080932C0180912C0187FD2FC099
:100860008091290187FD2BC010922B014FEF5FEF84
:100870009F5F963008F090E0292F30E0F901ED5DA0
:10088000FE4F4F3F8FEF580719F4408150E008C0EA
:1008900080818B3B59F480912B018F5F80932B01DA
:1008A00090932D0180912E019813E2CF842F0E9406
:1008B000D60381E090E008958EEF9FEF08958AE7D8
:1008C0009FEF08950F931F93CF93DF9300915E02E4
:1008D00080915D02081B07FD0C5F11E003300CF0F6
:1008E00009C180915402A09153028A1B87FD885F41
:1008F000882309F4FFC080915402A81709F4FAC0B4
:10090000AF5FA83008F0A0E0A0935302B0E0AA0FB8
:10091000BB1FAD5BBD4FCD91DC9111978D919C912B
:1009200092FDC3C02C2FCA3A20F08C2F815F8230F9
:1009300010F494FF02C0DD27B5C08091420295FFFC
:1009400002C0806801C08F778093420293FF13C07A
:10095000EEE1F2E0C0E0D0E08491281306C0CC0FB5
:10096000DD1FFE01E15EFD4F12C021963296C932B5
:10097000D10591F716C0E0E4F1E0C0E0D0E0849149
:1009800028130AC0CC0FDD1FFE01EF5BFE4FC491A0
:10099000D0E0209749F483C021963296CF36D10516
:1009A00071F7C0E0D0E07BC090914202FE01C430FC
:1009B000D10508F041C0E25CFD4F97FF02C01082F4
:1009C0005CC08081813009F458C01083C230D105E9
:1009D00071F0C330D10511F082E00AC094FF02C06B
:1009E0009F7E01C090619093420284E001C081E04B
:1009F00090913D02282F292351F0809589238093DF
:100A00003D028091420280688093420203C0892B9C
:100A100080933D028DEE0E94BF038BEB0E94BF03CB
:100A200080913D020E94BF038BEB0E94BF03892B84
:100A300031F10E94210423C03697E830F10560F4BB
:100A4000E85CFE4FE49197FF03C0E0959E2301C050
:100A50009E2B9093420213C0FE01B097EB30F1053C
:100A600070F480913D0281FF02C096FF08C0E35DF3
:100A7000FE4FE491CE2FD0E002C0CBEBD0E08091CE
:100A800042029E01205231092134310528F0CB3831
:100A9000D10511F0816001C08E7F80934202809168
:100AA0004202D82B209719F425C0C6E0D0E0CE0131
:100AB00099278B3B9105F1F0892BE1F080915E0243
:100AC0008F5F84300CF080E0282F082E000C330B51
:100AD00040915D0250E02417350709F4FFCE220F44
:100AE000331FF901EB5AFD4FD183C08380935E021F
:100AF0000F5FF4CE802FDF91CF911F910F9108955A
:100B0000CF92DF92EF92FF920F931F93CF9380913A
:100B1000290186FF64C080912A018F5F80932A019A
:100B200080912A018A3038F4823058F4813009F0FB
:100B30008BC160E01DC08B3031F1B0F08C3079F1A9
:100B400083C1C0912201C1706C2F809139010E9434
:100B5000E00280912001C80FC09320018091220102
:100B600090E09595879597C06091200160956170A0
:100B700080913901CF911F910F91FF90EF90DF90FD
:100B8000CF900C94E00262E080913901CF911F91E7
:100B90000F91FF90EF90DF90CF900C941003809115
:100BA00021018E3E29F0809121018E3F09F04FC135
:100BB000809129018F7B8093290180912C0187FFEF
:100BC00004C080912C018F7703C080912C018E7F0F
:100BD00080932C018091290184FD36C133C180911D
:100BE00039010E94B7029FB7F894409130015091AB
:100BF000310160913201709133019FBF00911B015F
:100C000010911C0120911D0130911E016A017B0190
:100C1000C01AD10AE20AF30A970186010B3F1105B7
:100C20002105310520F010922A01109222014093F3
:100C30001B0150931C0160931D0170931E01909144
:100C40002A019F5F90932A0190912A019A3068F4BB
:100C5000923080F4913009F0F7C010922001809119
:100C6000290180688093290102C19A30B9F09B3034
:100C700011F1EAC090912001980F909320012091EA
:100C8000220130E035952795209322019091220191
:100C9000811180E8892B80932201E9C09091200185
:100CA000917090932001909120019813E0C08DEFF6
:100CB00080932001DCC0809120018D3F10F08EEFE9
:100CC000A9C0909122019E3F29F0809129018D7F3A
:100CD000809329018091290184FF03C0903F08F48B
:100CE00067C020912901822F847022FD5FC09E3E43
:100CF000B9F160F49A3AF1F118F49923C9F058C0A7
:100D0000903E09F44AC0913EC1F152C09C3F01F1AE
:100D100050F4903F09F04CC091E090931F019091E6
:100D20002901906240C09E3F39F09F3F09F040C0CA
:100D30000E94AC038CE03FC090912901892F827002
:100D400091FF39C080911A018093210180E133C065
:100D500010921F011092290110922C018EE02BC0DD
:100D60008091290181FF26C080911A018E3E09F0F1
:100D700078C020C010921F011DC09091290192FDE2
:100D80001AC097E090931F0190912901946090936D
:100D90002901909129019F7D06C091E090931F0148
:100DA0009091290198609093290105C082E003C0C9
:100DB00086E001C084E081FF05C090911F01915041
:100DC00090931F0190911F01191614F482FF1EC009
:100DD000909154029F5F983008F047C020915302D1
:100DE0009217A1F0E92FF0E02091220130E0EE0F00
:100DF000FF1FED5BFD4F318320834091290120814E
:100E00003181342B3183208390935402807151F0CF
:100E1000809121010E94D60380912C0180688093EB
:100E20002C0112C080911F01181674F080912901C5
:100E3000837C8093290110921F01809129018F7773
:100E4000809329010E94210410922A0110C08091F0
:100E5000210180931A0180912901826080932901E8
:100E6000A7CE9093210184E1A6CF90E0B7CFCF9198
:100E70001F910F91FF90EF90DF90CF900895CF9248
:100E8000DF92EF92FF920F931F93CF93DF93CDB733
:100E9000DEB728970FB6F894DEBF0FBECDBFF82E91
:100EA00083E00E94B7020197D9F78E010F5F1F4FB1
:100EB000F80181E098E0E92EE00EF0FE02C08083A8
:100EC00001C01082F6943196EE12F7CF60E083E015
:100ED0000E94E00261E088E00E94E0028CEE90E077
:100EE0000197F1F761E083E00E94E00280E890E082
:100EF0000197F1F760E083E00E94E00288E390E070
:100F00000197F1F761E083E00E94E0028AEBC82ECE
:100F1000D12C61E083E00E94E002F80161918F0131
:100F200088E00E94E002C6010197F1F760E083E0EB
:100F30000E94E00260E088E00E94E002E012E9CF57
:100F400061E083E00E94E00260E088E00E94E0024D
:100F500061E070E080E090E028960FB6F894DEBF84
:100F60000FBECDBFDF91CF911F910F91FF90EF90FA
:100F7000DF90CF900C9471038F929F92AF92BF92AB
:100F80000F931F93CF93DF93CDB7DEB7A1970FB623
:100F9000F894DEBF0FBECDBF19A2423008F44AE07C
:100FA0008E010F5D1F4F842E912CA12CB12CA50119
:100FB00094010E94B80BE62FB901CA010150110932
:100FC000EA3014F4E05D01C0E95CD801EC93232B16
:100FD000242B252B61F70115110571F0F801019003
:100FE0000020E9F73197AF01401B510BB8018FE5A5
:100FF00092E00E945F0202C080E090E0A1960FB6EE
:10100000F894DEBF0FBECDBFDF91CF911F910F913E
:10101000BF90AF909F908F9008950E94E00B1F9219
:101020000F920FB60F9211242F933F934F935F931C
:101030006F937F938F939F93AF93BF93EF93FF93A0
:101040008FE592E00E94C101FF91EF91BF91AF91B6
:101050009F918F917F916F915F914F913F912F91D0
:101060000F900FBE0F901F9018951F920F920FB602
:101070000F9211242F938F939F93EF93FF93E091FF
:101080006F02F09170028081E0917502F09176021A
:1010900082FD12C09081809178028F5F8F732091C2
:1010A0007902821751F0E0917802F0E0E15AFD4FA9
:1010B000958F8093780201C08081FF91EF919F917D
:1010C0008F912F910F900FBE0F901F9018951F9228
:1010D0000F920FB60F9211242F933F938F939F93EC
:1010E000AF93BF938091300190913101A091320173
:1010F000B091330130912F0126E0230F2D3720F4DA
:101100000296A11DB11D05C029E8230F0396A11D5C
:10111000B11D20932F018093300190933101A09352
:101120003201B09333018091340190913501A09147
:101130003601B09137010196A11DB11D8093340194
:1011400090933501A0933601B0933701BF91AF91D1
:101150009F918F913F912F910F900FBE0F901F90F5
:1011600018951F920F920FB60F9211242F933F9351
:101170004F935F936F937F938F939F93AF93BF939F
:10118000EF93FF93E0910201F09103010995FF9124
:10119000EF91BF91AF919F918F917F916F915F91EF
:1011A0004F913F912F910F900FBE0F901F90189568
:1011B0001F920F920FB60F9211242F933F934F93CC
:1011C0005F936F937F938F939F93AF93BF93EF93AF
:1011D000FF93E0910001F09101010995FF91EF91DA
:1011E000BF91AF919F918F917F916F915F914F913F
:1011F0003F912F910F900FBE0F901F901895EFE524
:10120000F2E01382128288EE93E0A0E0B0E08483E3
:101210009583A683B78388E091E09183808385ECF2
:1012200090E09587848784EC90E09787868780ECB0
:1012300090E0918B808B81EC90E0938B828B82ECA1
:1012400090E0958B848B86EC90E0978B868B118E4B
:10125000128E138E148E0895789484B5826084BDA6
:1012600084B5816084BD85B5826085BD85B58160AA
:1012700085BD80916E00816080936E001092810028
:1012800080918100826080938100809181008160E3
:1012900080938100809180008160809380008091A4
:1012A000B10084608093B1008091B0008160809330
:1012B000B00080917A00846080937A0080917A00F7
:1012C000826080937A0080917A008E7F80937A008A
:1012D00080917A00806880937A001092C100EBE3DD
:1012E000F1E08FEF819392E0EB33F907D9F78AE3CE
:1012F00080933E018FE5809340018AE28093410113
:1013000086E38093420188E3809345018DE18093D9
:1013100043014BE4409350013DE43093510198E484
:101320009093520150E55093530183E5809355010A
:1013300021E0209356018EE0809357018FE0809347
:1013400058018CE18093590169E360935A0167E287
:101350006093960162E560935B016FE460935C01CA
:1013600050935D0151E550935E0140935F014CE461
:10137000409360013093610137E4309362019093B0
:10138000630199E4909364019AE1909398019BE141
:10139000909399019EE4909367019AE49093680179
:1013A00097E39093690195E390936A012093660116
:1013B0002BE020936B0112E010936C0123E020934B
:1013C0006D0124E020936E0125E020936F0126E05B
:1013D0002093700127E02093710128E0209372018F
:1013E00009E0009373012AE02093740128E220931E
:1013F000750123E3209376012CE02093770126E406
:1014000020933D0124E3209378012BE22093970160
:101410009093790180937B018EE180937C0180E33E
:1014200080937D018EE280937E0180E280937F0134
:1014300082E18093800181E28093810182E2809346
:10144000820183E28093830187E18093840184E2B7
:101450008093850185E28093860186E280938701EF
:1014600082E38093880181E38093890188E18093FE
:101470008A0189E180938B0180E180938C0183E173
:1014800080938D018FE180938E0184E180938F01A1
:1014900086E1809390018FE28093910181E18093B6
:1014A00092018DE28093930185E1809394018CE217
:1014B000809395018DE080939A018BE380939C014A
:1014C0008CE380939D018DE380939E018EE3809356
:1014D0009F018FE38093A00180E48093A10181E4C8
:1014E0008093A20182E48093A30183E48093A4010A
:1014F00084E48093A50185E88093A60186E8809323
:10150000A7010E94AC03009339011093380162E0F7
:1015100082E00E94100362E089E00E94100380E8EC
:1015200095E09093010180930001809169008C7F88
:10153000826080936900E89A61E083E00E94100372
:1015400061E088E00E94100361E083E00E94E00215
:1015500061E088E00E94E0020E946204882309F4AE
:10156000B0C00E9462048823A1F0E0915D028091E6
:101570005E02E81789F0EF5FE43008F0E0E0E09306
:101580005D02F0E0EE0FFF1FEB5AFD4F808191816D
:1015900005C080E090E002C08EEF9FEF90933C0288
:1015A00080933B02892B91F186E291E00E946301D6
:1015B00060913B0270913C0280E090E040E10E942B
:1015C000BC0786E191E00E94630180913C02C82F34
:1015D00090E0D92FBE0180E090E040E10E94BC077E
:1015E0008EE091E00E94630160913B0270913C02A9
:1015F000772780E090E040E10E94BC0742E050E0A5
:1016000066E171E08FE592E00E945F0220913B026B
:1016100030913C02C9019927FC01389737FD62C01F
:10162000E331F10508F040C0EC5CFF4F0C94DA0B9D
:1016300080EE0E943F078DE142C080EE0E943F078E
:1016400088E33DC080EE0E943F0782E538C080EE0F
:101650000E943F0787E433C080EE0E943F078FE47B
:101660002EC080EE0E943F0780E529C080EE0E94D8
:101670003F0781E524C080EE0E943F078BE41FC036
:1016800080EE0E943F078DE41AC080EE0E943F0763
:1016900088E415C080EE0E943F0789E410C080EE08
:1016A0000E943F0783E50BC0FC01E55CFE4F808193
:1016B00080933A0104C080EE0E943F078DE90E94AA
:1016C0003F0783E00E94B702892B49F46AE070E08B
:1016D00080E090E00E9471038AEA0E943F070E9426
:1016E00055023ACFE331F10540F0FC01E55CFE4FD5
:1016F000808180933A018068E2CFE95BFF4F0C94D0
:10170000DA0B80EE0E943F0788EBD9CF80EE0E9473
:101710003F0782EDD4CF80EE0E943F0787ECCFCF0A
:1017200080EE0E943F078FECCACF80EE0E943F07F9
:1017300080EDC5CF80EE0E943F0781EDC0CF80EEE7
:101740000E943F078BECBBCF80EE0E943F078DECE1
:10175000B6CF80EE0E943F0788ECB1CF80EE0E94AA
:101760003F0789ECACCF80EE0E943F0783EDA7CF07
:10177000A1E21A2EAA1BBB1BFD010DC0AA1FBB1F95
:10178000EE1FFF1FA217B307E407F50720F0A21B07
:10179000B30BE40BF50B661F771F881F991F1A9474
:1017A00069F760957095809590959B01AC01BD019E
:1017B000CF010895EE0FFF1F0590F491E02D0994DD
:0E17C00081E090E0F8940C94E50BF894FFCFD4
:1017CE00AB03AB0300000000E2015F0284012902BB
:0A17DE00B5019301A7010D0A0000F8
:00000001FF
